:020000040800F2
:1000000000500020C1340008C5300008C730000887
:10001000C9300008CB300008CD30000800000000D7
:10002000000000000000000000000000CF300008C9
:10003000D130000800000000D3300008D53000089F
:100040000935000809350008093500080935000898
:100050000935000809350008093500080935000888
:100060000935000809350008093500080935000878
:100070000935000809350008093500080935000868
:100080000935000809350008093500080935000858
:10009000D93000080935000809350008093500087D
:1000A0000935000809350008093500080935000838
:1000B000E530000809350008093500080935000851
:1000C0000935000809350008093500080935000818
:1000D0000935000809350008093500080935000808
:1000E000093500080935000809350008000000003E
:1000F0000000000000000000000000000000000000
:0C01000000000000000000005FF808F1A3
:10010C0010B5054C237833B9044B13B10448AFF345
:10011C0000800123237010BD60010020000000004E
:10012C006435000808B5034B1BB103490348AFF312
:10013C00008008BD00000000640100206435000848
:10014C0038B50E4B054618784FF47A73B3FBF0F3C1
:10015C000B4A1068B0FBF3F000F0B2F9044658B942
:10016C000F2D09D8024629464FF0FF3000F068F9F0
:10017C00044B20461D6038BD012038BD0000002016
:10018C001801002004000020074A08B5136803205A
:10019C0043F01003136000F041F90020FFF7D0FF8B
:1001AC0002F0BCFE002008BD00200240034A044BB4
:1001BC0011681B780B441360704700BFA00300202C
:1001CC0000000020014B1868704700BFA0030020FE
:1001DC00002373B5019390F82430012B74D00123C4
:1001EC004D6880F82430062D02684FEA85030C68B0
:1001FC0025D82B441F25566B053B9D4026EA05054B
:10020C0004FA03F32B435363092C4FEA44038D6820
:10021C002FD907262344D1681E3B9E4021EA0601B4
:10022C0005FA03F30B43D360A4F11003012B2BD974
:10023C000023002280F82420184602B070BD0C2D3B
:10024C000BD82B441F25166B233B9D4026EA050536
:10025C0004FA03F32B431363D6E72B441F25D66A0A
:10026C00413B9D4026EA050504FA03F32B43D36278
:10027C00CAE70726116923449E4021EA060105FAC4
:10028C0003F30B431361CFE7104B9A4216D19368DB
:10029C001B02CDD49368102C43F400039360C7D198
:1002AC000B4B0C4A1B68B3FBF2F20A23534301932A
:1002BC00019B002BBCD0019B013BF8E7836A43F008
:1002CC00200383620123B4E70223B5E70024014035
:1002DC001801002040420F0038B5036804469A68A4
:1002EC00D20701D4002038BD9A6822F001029A602E
:1002FC00FFF768FF054623689B68DB07F2D5FFF71D
:10030C0061FF401B0228F6D9A36A012043F01003B9
:10031C00A362E36A43F00103E36238BD70B504469F
:10032C00002871D0836A23B9C36280F8243002F0AC
:10033C0017FE2046FFF7D0FFA36A13F0100FA36A35
:10034C0064D1002862D1E16923F48853626823F0F8
:10035C00020343F002030A43A168A362E368B1F508
:10036C00807F42EA430238D0012914BF06464FF47D
:10037C0080766569012D07D1002B30D1A369013B33
:10038C0046EA433545F400662368B1F5807F5D6825
:10039C0025F4694545EA06055D609E681D4D05EA34
:1003AC00060545EA02059D6001D0012920D121698D
:1003BC0001390905DD6A25F470052943D96299686C
:1003CC00154B0B409A4215D10023E362A36A23F02C
:1003DC00030343F00103A36270BD0E46C9E7A36A91
:1003EC0043F02003A362E36A43F00103E362CBE72B
:1003FC000021DFE7A36A23F0120343F01003A3628A
:10040C00E36A43F00103E362012070BD43F0100383
:10041C00A362F9E7FDF7E1FFFE0E1FFF074A00029A
:10042C00D36800F4E06023F4E0631B041B0C43F07E
:10043C00BF6343F400330343D360704700ED00E027
:10044C00174B30B5DC68C4F30224C4F10703251D37
:10045C00042B28BF0423062D4FF0010598BF002460
:10046C0005FA03F303F1FF3388BF033C1940A140A5
:10047C0005FA04F4013C2240002842EA01024FEA4A
:10048C000212AFBF00F16040064B00F00F00D2B279
:10049C00A5BFD2B200F561401A5480F8002330BDDC
:1004AC0000ED00E014ED00E00123420900F01F0014
:1004BC0003FA00F0014B43F82200704700E100E022
:1004CC000138B0F1807F0AD2F021064B064A586001
:1004DC0082F823100020072298601A6070470120D0
:1004EC00704700BF10E000E000ED00E02DE9F74F91
:1004FC0000221646654BDFF8A4E1DFF8A4C14FF0EB
:10050C0001080C6808FA06F808EA0404A0457FD133
:10051C004D68122D00F0AF8000F28880022D00F0A3
:10052C00A7807CD8002D00F08E80012D00F09E80DD
:10053C004FF00F09FF2C93BF824606F18045083D12
:10054C00D0F800B092BFB500D0F804B0AD0009FAF5
:10055C0005F82BEA080802FA05F588BF00F1040A31
:10056C0048EA0505CAF80050D1F804A01AF0805FDB
:10057C004ED0474D464FAD6926F0030845F00105B6
:10058C00BD61BD6908F1804805F00105019508F5CC
:10059C00803806F0030B019D4FEA8B0BD8F80850FE
:1005AC0009FA0BF925EA09093A4DA84268D005F574
:1005BC008065A84266D005F58065A84264D005F533
:1005CC008065A8420CBF0325042505FA0BF545EA06
:1005DC000905C8F808501D681AF4803F14BF25435C
:1005EC00A5431D605D681AF4003F14BF2543A54365
:1005FC005D609D681AF4801F14BF2543A5439D6060
:10060C00DD681AF4001F14BF2C4325EA0404DC60D7
:10061C000136102E7FF473AF03B0BDE8F08F032DBD
:10062C0022D0112D84D1CA68043281E71A4FBD4201
:10063C0009D012D8DFF86C904D4504D009F58039FB
:10064C004D457FF475AF8A68C2B1012A0CBFC0F862
:10065C001080C0F8148008226AE77545F3D0654510
:10066C00F1D0DFF84490EBE7002261E7CA685FE75E
:10067C00CA6808325CE7CA680C3259E7042257E7AB
:10068C000025A2E70125A0E702259EE70004014012
:10069C000010024000080140000021100000311041
:1006AC000000321000001110000022100AB101618C
:1006BC0070470904FBE7C3685940C16070472DE9D6
:1006CC00F041044686B0002860D090F8293403F03D
:1006DC00FF021BB980F8282402F072FD2546032383
:1006EC006E4655F8100B84F8293401F06BFA0FCDD7
:1006FC000FC62B6804F10408336098E80E002068DC
:10070C0001F050FA0021206801F066FA002123461E
:10071C0022460126084604F1100582F8281091861D
:10072C0001310F2982F8296082F82B009063D06385
:10073C00106402F12002F0D10022174683F828221F
:10074C009A8601320F2A83F8297283F82B72C3F828
:10075C003872C3F83C72C3F8407203F12003EDD138
:10076C006E460FCD0FC62B68336098E80E002068DC
:10077C0001F034FA012384F82470206884F82934B9
:10078C0001F004FD002006B0BDE8F0810120FAE77D
:10079C0090F8283410B5012B04460ED0012180F8B6
:1007AC00281402F034FE206801F0EEFC206801F001
:1007BC0000FA002084F8280410BD022010BD90F827
:1007CC00282410B5012A04460BD0012280F82824D5
:1007DC0084F82410006801F0D1FC002084F828046F
:1007EC0010BD022010BD38B5044648B2002801F0F7
:1007FC007F05B5BF04EB451104EB4111283101F520
:10080C000A71C00F0D704870CB7094F828340A61CF
:10081C00012B09D00123206884F8283401F0FAF95F
:10082C00002084F8280438BD022038BD4BB2002BC0
:10083C0001F07F02B5BF00EB421100EB41112831F2
:10084C0001F50A71DB0F10B50A704B7090F8283463
:10085C000446012B09D0012380F82834006801F0EC
:10086C004BFB002084F8280410BD022010BD70B58D
:10087C00002601F07F014D01441984F8281205F57A
:10088C000A710144C4F83C22C4F84032C4F84462F2
:10089C0084F82962006801F093FC304670BD01F0C9
:1008AC000F0100EB4111B1F84402704701F07F01D8
:1008BC0070B54D01441923640026012384F82810D7
:1008CC0005F128010144E263666484F8293000686C
:1008DC0001F076FC304670BD2DE9F3470446006804
:1008EC0001F056FC000400F19880206801F050FCE7
:1008FC0041050FD522682046B2F8443023F48063BA
:10090C001B041B0CA2F8443002F091FC0021204681
:10091C00FFF755FF206801F03BFC470408D522681F
:10092C00B2F8443023F480431B041B0CA2F844306F
:10093C00206801F02DFC860408D52268B2F84430FA
:10094C0023F400531B041B0CA2F84430206801F064
:10095C001FFCC5041CD522682046B2F8403023F099
:10096C0004031B041B0CA2F84030B2F8403023F0F7
:10097C0008031B041B0CA2F8403002F075FC226823
:10098C00B2F8443023F480531B041B0CA2F84430FF
:10099C00206801F0FDFB00051DD52068B0F8403043
:1009AC009BB243F00803A0F84030B0F8443023F475
:1009BC0000631B041B0CA0F84430B0F840309BB211
:1009CC0043F00403A0F8403001F0E2FBC10402D470
:1009DC00204602F039FC206801F0DAFB82050BD5C9
:1009EC0022682046B2F8443023F400731B041B0C1D
:1009FC00A2F8443002F017FC206801F0C9FBC305D3
:100A0C0008D52268B2F8443023F480731B041B0C05
:100A1C00A2F8443002B0BDE8F0870023C84FDFF8DD
:100A2C002483DFF82493ADF80430ADF80630206849
:100A3C00B0F844309BB2ADF804301B047FF555AFD1
:100A4C00BDF8045015F00F0540F0AB80BDF8041054
:100A5C00038811F010019BB226D13B400380B0F803
:100A6C00503094F828209BB203EBC20300EB4300F8
:100A7C00D0F80434E26BC3F3090363641344E363F7
:100A8C00204602F0C9FB94F82430002BCFD0226C06
:100A9C00002ACCD194F82430216843F08003A1F8CB
:100AAC004C3084F82420C2E7ADF80630BDF806308F
:100ABC001A051FD5B0F8503094F828229BB203EBDE
:100ACC00C20300EB4303D3F80C34B4F82C22C3F369
:100ADC000903C4F8443204F22C4101F071FC226881
:100AEC002046138823F070031B051B0D138002F0A6
:100AFC0085FB9CE7BDF806301B0498D5038823F0D2
:100B0C0070031B051B0D0380B0F8503094F828229D
:100B1C009BB203EBC20300EB4303D3F80C34C3F3D7
:100B2C000903C4F8443263B1B4F82C22D4F83C1253
:100B3C0001F046FCD4F83C32D4F844221344C4F8F7
:100B4C003C320021204602F05FFB2268D4F8385278
:100B5C00B2F850103E2D89B201F1060102F5806009
:100B6C0017D9C5F34F13EE0604BF03F1FF339BB245
:100B7C0049EA83239BB240F8113013889BB203EAF5
:100B8C00080383F4405343F4004343F08003138081
:100B9C004DE7C5F34F03ED0744BF01339BB29B02F6
:100BAC00E8E730F825309BB2ADF80630BDF80630DA
:100BBC0019043FD530F825304FEA451A23F070035D
:100BCC001B051B0D20F8253004EB0A0191F832327D
:100BDC00002B74D1B0F8503091F828229BB2063318
:100BEC0003EBC20300EB4303D3F80064C6F309061E
:100BFC0036B1B1F82C223346D1F83C1201F0E0FBAF
:100C0C0004EB0A01D1F84432D1F83C223344C1F848
:100C1C004432D1F840323244C1F83C2223B1D1F8ED
:100C2C003802864280F08680A2449AF82812204628
:100C3C0002F0EAFABDF806301A067FF5F8AE206825
:100C4C006E0130F82530A1199BB23B4020F82530BD
:100C5C0091F832300235002B78D1B0F8503091F841
:100C6C0028209BB2023303EBC20300EB4303D3F8FF
:100C7C00003404EB4515C3F309036B601BB18A8D7B
:100C8C00C96B01F08BFA22682644B2F8503096F802
:100C9C0028109BB2023303EBC10302EB4303D3F8DE
:100CAC000024F36BC2F3090272641A44336CF263CE
:100CBC002046002B40F0858002F0AEFAB7E691F8A2
:100CCC00283230F82320DB0012F4804FB0F850208B
:100CDC0092B221D00232134400EB4303D3F80064E8
:100CEC00C6F3090636B13346B1F82E22D1F83C12C0
:100CFC0001F066FB04EB0A0393F82812226832F821
:100D0C00213023F0F0031B051B0D43F4004343F08B
:100D1C00C00322F8213073E70632134400EB43037F
:100D2C00D3F80064C6F30906002EE3D03346B1F8BD
:100D3C003022DBE791F828122046FFF798FD79E77F
:100D4C000F8FFFFF8FBFFFFF0080FFFF91F8283050
:100D5C0030F82320DB0012F0400FB0F8502092B294
:100D6C0020D00232134400EB4303D3F8003404EBDD
:100D7C004515C3F309036B601BB1CA8DC96B01F038
:100D8C000DFAA31993F82810226832F8213023F0B9
:100D9C00F0031B051B0D43F4404343F0800322F882
:100DAC00213070E70632134400EB4303D3F80034D0
:100DBC0004EB4515C3F309036B60002BE1D00A8EDD
:100DCC00DCE7FFF773FD32E6012238B54BB2002B9E
:100DDC0001F07F05B5BF00EB451100EB4111283147
:100DEC0001F50A71DB0FEDB28A700D704B7090F843
:100DFC002834044693420ED080F82824006801F071
:100E0C0049F925B904F22C41206801F0C5F90020FC
:100E1C0084F8280438BD022038BD38B500244BB204
:100E2C00002B01F07F02B5BF00EB421100EB41112A
:100E3C00283101F50A71DB0F8C700A704B7090F839
:100E4C0028340546012B09D0012380F8283400688A
:100E5C0001F052F985F82844204638BD022038BDEF
:100E6C0011F0800F1BBF01F07F0100EB411000EB74
:100E7C004110283008BF00F50A701AB982728380BD
:100E8C00002070470122C3801B0C82720381F7E79C
:100E9C0003682DE9F341DB07054610D42B689F0747
:100EAC005ED42B68190700F195802B685A0700F166
:100EBC00BF80EA69002A40F02D81002014E0904C9C
:100ECC00636803F00C03042B07D0636803F00C0376
:100EDC00082B0CD16368DE0309D523689C03DDD590
:100EEC006B68002BDAD1012002B0BDE8F0816B6891
:100EFC00B3F5803F10D1236843F480332360FFF7B0
:100F0C0061F9064623689803C8D4FFF75BF9801B88
:100F1C006428F7D90320E7E79BB9236823F48033CF
:100F2C002360236823F480232360FFF74BF90646E4
:100F3C0023689903B2D5FFF745F9801B6428F7D9CC
:100F4C00E8E7B3F5A02F236803D143F48023236093
:100F5C00D1E723F480332360236823F48023CDE787
:100F6C00674C636813F00C0F07D0636803F00C0335
:100F7C00082B10D16368DA030DD423689B0702D5C4
:100F8C002B69012BAFD123686A6923F0F80343EA7C
:100F9C00C203236085E72A695A4B6AB101221A60A1
:100FAC00FFF710F9064623689F07ECD4FFF70AF900
:100FBC00801B0228F7D9ADE71A60FFF703F9064644
:100FCC00236898077FF56DAFFFF7FCF8801B0228AC
:100FDC00F6D99FE7AA694A4C4B4BDAB101221A6049
:100FEC00FFF7F0F80646636A9B070DD54FF4FA52EB
:100FFC00464B1B68B3FBF2F3019300BF019B5A1ED7
:10100C000192002BF9D150E7FFF7DCF8801B022886
:10101C00E9D97FE71A60FFF7D5F80646636A9F07A0
:10102C007FF543AFFFF7CEF8801B0228F6D971E7A6
:10103C00334CE369D80024D40127E36943F080538F
:10104C00E361E36903F080530093009B304E3368F7
:10105C00D90518D5EB68012B26D1236A43F001037F
:10106C002362FFF7AFF841F288368046236A9B076C
:10107C003FD5002F3FF41DAFE36923F08053E361AC
:10108C0017E70027E2E7336843F480733360FFF718
:10109C0099F880463368DA05DCD4FFF793F8A0EBB7
:1010AC0008006428F6D935E7ABB9236A41F28838D1
:1010BC0023F001032362236A23F004032362FFF766
:1010CC0081F80646236A9807D3D5FFF77BF8801B77
:1010DC004045F7D91EE7052B236A03D143F00403DF
:1010EC002362BAE723F001032362236A23F004038B
:1010FC00B6E7FFF767F8A0EB0800B042B6D909E7EE
:10110C0000100240000042428004424218010020BC
:10111C0000700040224C636803F00C03082B3FF472
:10112C00E2AE00231F4E022A33602BD1FFF74AF8A0
:10113C000746236899011FD42B6AB3F5803F05D16C
:10114C006268A96822F400320A436260696A6268C4
:10115C000B4322F474121343636001233360FFF7D3
:10116C0031F8054623689A013FF5A7AEFFF72AF838
:10117C00401B0228F6D9CDE6FFF724F8C01B022845
:10118C00D7D9C7E6FFF71EF8054623689B017FF504
:10119C0094AEFFF717F8401B0228F6D9BAE600BF49
:1011AC00001002406000424230B5194B87B002ACCF
:1011BC0003F11005224618685968083303C2AB4284
:1011CC001446F7D101238DF80430022311498DF810
:1011DC0005304B6803F00C02082A17D1C3F3834285
:1011EC0006A80244DB0312F8102C0CD54B680A48F5
:1011FC00C3F34043504306AA134413F8143CB0FB0A
:10120C00F3F007B030BD05485043FAE70248F8E761
:10121C007C3500080010024000127A0000093D00E5
:10122C00544A2DE9F0411368054603F007038B423D
:10123C000E462AD329688C0734D4CA0747D44D4AA2
:10124C00136803F007039E42C0F082802A684A4C60
:10125C0012F0040F40F08780130706D563682A69E3
:10126C0023F4605343EAC2036360FFF79DFF636896
:10127C00424AC3F30313D35CD840414B186000209F
:10128C00FEF75EFF0020BDE8F081136823F0070332
:10129C000B431360136803F007039942CAD0012073
:1012AC00BDE8F081344B11F0040F1EBF5A6842F4B4
:1012BC00E0625A60080742BF5A6842F460525A60B2
:1012CC005A68A86822F0F00202435A60B5E76A68CF
:1012DC00294C012A23681CD113F4003FDFD063682A
:1012EC0041F2883823F0030313436360FEF76AFF6F
:1012FC006B680746012B14D1636803F00C03042BB5
:10130C009DD0FEF75FFFC01B4045F5D90320BDE81B
:10131C00F081022A02D113F0007FDFE713F0020FF5
:10132C00DCE7022B0FD1636803F00C03082B86D08B
:10133C00FEF748FFC01B4045F5D9E7E7FEF742FF33
:10134C00C01B4045E2D8636813F00C0FF6D176E76A
:10135C00136823F0070333431360136803F0070388
:10136C009E429CD172E76368E96823F4E0630B4307
:10137C00636071E700200240001002408C350008C9
:10138C001801002003682DE9F341D907054620D543
:10139C00354CE369DA0032D40127E36943F080531A
:1013AC00E361E36903F080530193019B2F4E336893
:1013BC00DB0526D5236A13F4407336D1236A6A6899
:1013CC0023F44073134323621FB1E36923F080536A
:1013DC00E3612868830706D5234AA968536823F478
:1013EC0040430B43536010F010001BD01E4AE968B9
:1013FC005368002023F480030B43536012E0002752
:10140C00D4E7336843F480733360FEF7DBFE804629
:10141C003368D805CED4FEF7D5FEA0EB08006428BF
:10142C00F6D9032002B0BDE8F0816A6802F440727C
:10143C009342C3D001200E4A236A1060002023F48B
:10144C00407110602162D907B8D5FEF7BBFE41F29E
:10145C0088380646236A9A07B0D4FEF7B3FE801B81
:10146C004045F7D9DDE700BF001002400070004096
:10147C0040044242036A70B523F001030362036A1D
:10148C00446882690D6822F073022A438D6823F048
:10149C0002032B430A4DA8420BD1CD6823F008035D
:1014AC002B438E694D6924F44074354323F00403B7
:1014BC002C43446082614A684263036270BD00BF82
:1014CC00002C0140036A70B523F480730362036A35
:1014DC004468C2690D6822F073022A438D6823F4B4
:1014EC00007343EA05230B4DA8420DD1CD6823F4BC
:1014FC00006343EA05238E694D6924F44054354357
:10150C0023F4806344EA05144460C2614A68C263F0
:10151C00036270BD002C0140036A30B523F4805384
:10152C000362036A4468C2690D6822F4E64242EA27
:10153C0005228D6823F4005343EA0533064DA84277
:10154C0002BF4D6924F4804444EA85144460C261AE
:10155C004A680264036230BD002C0140036848688D
:10156C009A6830B522F070020C68024322F0070230
:10157C00224350289A6021D002D8402810D030BD88
:10158C0060282DD070283DD1CA688C68986809698C
:10159C00224320F47F4042EA012202439A6030BD8C
:1015AC00186A1A6A096922F001021A629A6922F011
:1015BC00F00242EA01129A61186230BD88680D6926
:1015CC00196A1C6A21F00A0124F001041C629A6950
:1015DC00014322F0F00242EA05129A61196230BD11
:1015EC00186A8C6820F010000D69186299691A6AE3
:1015FC0021F4704122F0A00241EA053142EA0412C2
:10160C0099611A6230BD03680020DA6842F0010269
:10161C00DA601A6842F001021A607047704790F85D
:10162C003C3070B5012B4FF002031CD0012280F826
:10163C003D30036880F83C209A6822F47F4222F007
:10164C0077029A600A68402A79D019D8102A00F0DB
:10165C0093800AD8002A00F08980012380F83D305D
:10166C00002380F83C30184670BD202A00F08A8098
:10167C00302AF2D19A6822F0700242F0370236E03A
:10168C00702A36D01BD8502A42D0602AE5D11C6A69
:10169C004D6824F01004CE681C6299691A6A21F412
:1016AC00704122F0A00242EA051241EA063199612A
:1016BC001A629A6822F0700242F0670217E0B2F5E3
:1016CC00805F11D0B2F5005FC7D18A684D689C6805
:1016DC00C9682A4324F47F4442EA012222439A60D7
:1016EC009A6842F4804202E09A6822F007029A60FB
:1016FC00B3E78A684D689C68C9682A4324F47F4420
:10170C0042EA012222439A609A6842F07702EEE79D
:10171C004C68CE68196A1D6A21F00A0125F0010592
:10172C001D629A69214322F0F00242EA06129A6184
:10173C0019629A6822F0700242F05702D7E74C689F
:10174C00CE68196A1D6A21F00A0125F001051D6297
:10175C009A69214322F0F00242EA06129A61196258
:10176C009A6822F0700242F04702C0E79A6822F0B1
:10177C00700242F00702BAE79A6822F0700242F057
:10178C001702B4E79A6822F0700242F02702AEE723
:10179C0038B590F83C300446012B4FF0020315D0BD
:1017AC00012580F83D3080F83C50FFF7D7FE002033
:1017BC002368DA6822F04002DA60DA6822F48042A8
:1017CC00DA6084F83D5084F83C0038BD184638BDCA
:1017DC007047704770477047036810B51A69044624
:1017EC0091070ED5DA6892070BD56FF002021A61D9
:1017FC0001229B6902779B0777D0FFF7EAFF002352
:10180C00237723681A69500710D5DA6851070DD56C
:10181C006FF004021A6102229B69227713F4407F55
:10182C00204668D0FFF7D5FF0023237723681A6979
:10183C0012070FD5DA6810070CD56FF008021A6181
:10184C000422DB692277990720465AD0FFF7C1FFA3
:10185C000023237723681A69D20610D5DA68D006DC
:10186C000DD56FF010021A610822DB69227713F490
:10187C00407F20464BD0FFF7ACFF00232377236833
:10188C001A69D10708D5DA68D20705D56FF00102BD
:10189C0020461A6101F022FB23681A69100608D54C
:1018AC00DA68110605D56FF0800220461A6100F047
:1018BC0078F923681A69520608D5DA68500605D5F6
:1018CC006FF0400220461A61FFF785FF23681A6902
:1018DC00910622D5DA6892061FD56FF020022046B9
:1018EC00BDE810401A6100F05BB9FFF771FF2046AC
:1018FC00FFF770FF83E7FFF76BFF2046FFF76AFFE8
:10190C0092E7FFF765FF2046FFF764FFA0E7FFF7BC
:10191C005FFF2046FFF75EFFAFE710BD1A4A036872
:10192C0090420AD0B0F1804F07D0A2F59432904289
:10193C0003D002F58062904215D14A6823F07003FF
:10194C001343114A90420AD0B0F1804F07D0A2F550
:10195C009432904203D002F58062904203D1CA685F
:10196C0023F4407313434A6923F080031343036049
:10197C008B68C3620B688362034B984204BF0B698C
:10198C000363012343617047002C014010B50446EA
:10199C00A0B190F83D3003F0FF021BB980F83C2059
:1019AC0001F00CFB0223206884F83D30211DFFF769
:1019BC00B5FF0123002084F83D3010BD012010BD7F
:1019CC0010B50446A0B190F83D3003F0FF021BB9EE
:1019DC0080F83C20FFF722FE0223206884F83D307B
:1019EC00211DFFF79BFF0123002084F83D3010BD23
:1019FC00012010BD036A70B523F010030362036A63
:101A0C00446882690D6822F4E64242EA05228D6838
:101A1C0023F0200343EA05130B4DA8420DD1CD68EA
:101A2C0023F0800343EA05138E694D6924F4406466
:101A3C00354323F0400344EA8504446082614A68DC
:101A4C008263036270BD00BF002C014038B590F872
:101A5C003C300446012B4FF0020025D0012384F8C2
:101A6C003D0084F83C300C2A18D8DFE802F0071748
:101A7C0017171E1717172F17171740002068FFF797
:101A8C00F9FC236809699A6942F008029A619A691B
:101A9C0022F004029A619A690A439A610123002098
:101AAC0084F83D3084F83C0038BD2068FFF7A2FF75
:101ABC00236809699A6942F400629A619A6922F46E
:101ACC0080629A619A6942EA0122E6E72068FFF790
:101ADC00F9FC23680969DA6942F00802DA61DA690B
:101AEC0022F00402DA61DA690A43DA61D6E7206887
:101AFC00FFF712FD23680969DA6942F40062DA61C2
:101B0C00DA6922F48062DA61DA6942EA0122ECE7EE
:101B1C0090F83C30012B1FD0CB688A6823F44073BB
:101B2C0013434A6823F4806313430A6823F4006365
:101B3C0013430A6923F4805313434A6923F4005373
:101B4C0013438A6923F4404313430268536400230C
:101B5C0080F83C30184670470220704790F83C30B3
:101B6C0010B5012B4FF0020318D080F83D300368FC
:101B7C000C685A68496822F070025A605A6822430D
:101B8C005A609A6822F080029A609A680A439A60B6
:101B9C00012380F83D30002380F83C30184610BDFE
:101BAC007047704784B001A880E80E0004B0002094
:101BBC007047B0F840309BB243F43F43A0F840303C
:101BCC0000207047B0F8403023F474535B045B0C76
:101BDC00A0F84030002070470020704784B010B54A
:101BEC0003AC84E80E00BDE8104000220123A0F8ED
:101BFC004030A0F84020A0F84420A0F85020B0F8C5
:101C0C00403004B09BB243F43F43A0F84030104640
:101C1C007047000070B5CB780A78032B0FD8DFE83B
:101C2C0003F00264505930F8223023F4EC4323F0D3
:101C3C0070031B041B0C43F4007320F8223040F695
:101C4C000F730C7830F8242044F4004545F08005DF
:101C5C001A402A4320F824208A7A0D78002A40F072
:101C6C0097804C788A88002C4AD0B0F850405208A3
:101C7C00A4B204EBC50400EB44045200C4F80024E5
:101C8C000C7830F82420520608D530F82420134064
:101C9C0043F4004343F0C00320F824300A7830F8B2
:101CAC00223023F4E04323F040031B041B0C83F08D
:101CBC00200343F4004343F0800320F8223000203B
:101CCC0070BD30F8223023F4EC4323F070031B0476
:101CDC001B0CB2E730F8223023F4EC4323F07003F2
:101CEC001B041B0C43F4C063A7E730F8223023F429
:101CFC00EC4323F070031B041B0C43F480639CE740
:101D0C00B0F8503052089BB2043303EBC5035200B9
:101D1C0000F5806444F81320B0F850200D6992B29D
:101D2C000B7806323E2D02EBC30229D9C5F34F16B0
:101D3C00EB0604BF06F1FF339EB26E4B43EA8623DB
:101D4C009BB244F812300A7830F822305E040BD57E
:101D5C0030F8223023F0F0031B051B0D43F44043F5
:101D6C0043F0800320F822300A7830F8223023F434
:101D7C00804323F070031B041B0C83F4405398E73F
:101D8C00C5F34F03ED0744BF01339BB29B02D7E76A
:101D9C0030F8252022F4F8721205120D42F401429B
:101DAC0042F0800220F82520B0F850200C7892B236
:101DBC0002EBC402CC8800F580656408640045F829
:101DCC001240B0F850200C7892B2043202EBC402EC
:101DDC000C896408640045F812404A780C78002A93
:101DEC0047D130F82420550408D530F8242013406E
:101DFC0043F4404343F0800320F824300A7830F851
:101E0C0022305C060BD530F8223023F0F0031B0592
:101E1C001B0D43F4004343F0C00320F822300A7832
:101E2C0030F8223023F0F0031B051B0D43F4004364
:101E3C0043F0C00320F8223048F280020C7830F8CE
:101E4C00243023F4804323F070031B041B0C83F415
:101E5C004053134320F82430097830F8213023F410
:101E6C00E04323F040031B041B0C134320F82130E8
:101E7C0025E730F82420520408D530F824201340EC
:101E8C0043F4404343F0800320F824300A7830F8C0
:101E9C0022305B060BD530F8223023F0F0031B0503
:101EAC001B0D43F4004343F0C00320F822300A78A2
:101EBC0030F8223023F0F0031B051B0D43F4404394
:101ECC0043F0800320F8223048F280020C7830F87E
:101EDC00243023F4E04323F040031B041B0C134376
:101EEC0020F82430097830F8213023F4804323F093
:101EFC007003B8E70080FFFF10B58C7A4A780B7836
:101F0C00CCBB02B330F8232052060BD530F823207B
:101F1C0022F0F0021205120D42F4004242F0C0020F
:101F2C0020F823200A7830F8223023F4E04323F001
:101F3C0040031B041B0C43F4004343F0800320F8C4
:101F4C002230002010BD30F8232054040BD530F87B
:101F5C00232022F0F0021205120D42F4404242F00E
:101F6C00800220F823200A7830F8223023F48043B2
:101F7C0023F07003DDE7002A48D130F82320520407
:101F8C000BD530F8232022F0F0021205120D42F48A
:101F9C00404242F0800220F823200A7830F82230A8
:101FAC005C060BD530F8223023F0F0031B051B0D1B
:101FBC0043F4004343F0C00320F822300A7830F891
:101FCC00223023F0F0031B051B0D43F4004343F0B8
:101FDC00C00320F8223048F280020C7830F824300C
:101FEC0023F4804323F070031B041B0C134320F8D1
:101FFC002430097830F8213023F4E04323F04003F7
:10200C001B041B0C134320F821309AE730F82320D3
:10201C0052040BD530F8232022F0F0021205120DD9
:10202C0042F4404242F0800220F823200A7830F833
:10203C0022305B060BD530F8223023F0F0031B0561
:10204C001B0D43F4004343F0C00320F822300A7800
:10205C0030F8223023F0F0031B051B0D43F44043F2
:10206C0043F0800320F8223048F280020C7830F8DC
:10207C00243023F4E04323F040031B041B0C1343D4
:10208C0020F82430097830F8213023F4804323F0F1
:10209C007003B5E70A788AB9038823F4804323F0E8
:1020AC0040031B041B0C83F4805383F0100343F494
:1020BC00004343F080030380002070474B7883B1CA
:1020CC0030F8223023F4E04323F040031B041B0CB4
:1020DC0083F0100343F4004343F0800320F82230D4
:1020EC00EAE730F8223023F4804323F070031B041A
:1020FC001B0C83F48053EDE74B780A7813B330F85C
:10210C0022305B060BD530F8223023F0F0031B0590
:10211C001B0D43F4004343F0C00320F822300A782F
:10212C0030F8223023F4E04323F040031B041B0C53
:10213C0083F0300343F4004343F0800320F8223053
:10214C000020704730F822305B040BD530F8223079
:10215C0023F0F0031B051B0D43F4404343F08003B5
:10216C0020F822300A7830F8223023F4804323F010
:10217C0070031B041B0C83F44053DBE711B9802361
:10218C00A0F84C30002070470020704700207047AA
:10219C00B0F8440080B270470020704710B500249E
:1021AC00013300F580605B1000EB4202A34200D1CA
:1021BC0010BD31F8020B22F824000134F6E70000C0
:1021CC0070B50E468A694978054601293369B07A9B
:1021DC0066D19A421C469BBF00231446D21AB361A7
:1021EC0088BFB261A3B210BBB28871692846FFF7F1
:1021FC00D5FFB5F8503032789BB2023303EBC203F3
:10220C0005EB4303C3F80044327835F8223023F44D
:10221C00E04323F040031B041B0C83F0300343F416
:10222C00004343F0800325F82230002070BD327843
:10223C0035F82210D20011F0400FB5F8501089B2C9
:10224C001AD002310A4405EB4202C2F8004432892A
:10225C0071692846FFF7A2FF737832789BB935F87D
:10226C00223023F0F0031B051B0D43F4004343F015
:10227C00C00325F82230C7E70A4405EB4202C2F836
:10228C000444F288E4E7012BBED135F8223023F068
:10229C00F0031B051B0D43F4404343F08003E8E7B8
:1022AC009A4293BF0023D21AB261B36198BF13460E
:1022BC00327870BBB5F850103E2B89B201F1060193
:1022CC0001EBC20105F5806018D9C3F34F12DB0690
:1022DC0004BF02F1FF339AB2384B43EA82239BB21C
:1022EC0040F81130327835F8223023F4804323F053
:1022FC0070031B041B0C83F4405390E7C3F34F0291
:10230C00DC0744BF013292B2920292B240F8112023
:10231C00E8E7B9B9B5F850103E2B89B201F10201CA
:10232C0001EBC20105F5806428D9C3F34F10DA061E
:10233C0004BF00F1FF3290B2204A42EA802292B2EE
:10234C0044F81120727831785ABBB5F850203E2BE6
:10235C0092B202F1060202EBC10205F5806015D9BA
:10236C00C3F34F11DC0604BF01F1FF3399B2134BD9
:10237C0043EA81239BB240F81230B3E7C3F34F0218
:10238C00D80744BF013292B29202D8E7C3F34F018F
:10239C00DB0744BF013189B2890289B240F81210BF
:1023AC00A0E7012A9ED1B5F8502092B2023202EB7E
:1023BC00C10205EB4202C2F8003493E70080FFFF34
:1023CC0010B50024013300F580605B1000EB420275
:1023DC00A34200D110BD52F8240021F8140001349E
:1023EC00F6E7D0F818321BB10020C3F8140270477E
:1023FC0002207047D0F81C3210B5D0F818425BB1EF
:10240C0094F80002FF2807D09B6894F8012221461B
:10241C009847FF2384F80032002010BD432303802B
:10242C000048704740000020432303800048704759
:10243C00840000204323038000487047D400002010
:10244C000A23038000487047C800002038B50546B1
:10245C00D0F8184200F0D0FFD5F81832C4F80C02AE
:10246C004BB1D5F81C3204F50371DB68D4F80402C7
:10247C009847002038BD022038BD0000F8B50F7811
:10248C00064617F060030C4623D0202B19D1CA88BE
:10249C004B78C2B13906D0F818520BD5D0F81C12B3
:1024AC0018468F682946B84729463046E28800F01E
:1024BC0072FB06E085F8003285F80122294600F00F
:1024CC007FFB0020F8BDD0F81C0284681846A0479A
:1024DC00F7E74B780A2BF4D101220149E7E700BF5B
:1024EC007C01002010B50446812100F021FF012160
:1024FC00204600F01DFF8221204600F019FFD4F881
:10250C00183253B1D4F81C325B689847D4F81802CF
:10251C0000F07CFF0023C4F81832002010BDF8B581
:10252C00037C04467BBB4FF400730222812100F034
:10253C00EFFE4FF4007302220121204600F0E8FE6A
:10254C00082303228221204600F0E2FE4FF407709C
:10255C0000F058FF0646C4F8180220B30025D4F842
:10256C001C321B689847277CC6F81452C6F81852C0
:10257C0087B94FF40073D6F804220121204600F0ED
:10258C002DFF3846F8BD40230222812100F0C0FE09
:10259C004023D0E74023D6F804220121204600F046
:1025AC001DFF2846F8BD0120F8BD19B1C0F81C125A
:1025BC000020704702207047D0F818320020C3F872
:1025CC000812C3F810227047D0F818320020C3F854
:1025DC0004127047D0F8182210B562B1047C44B9CB
:1025EC004FF40073D2F80422012100F0F7FE002012
:1025FC0010BD4023F6E7022010BD08B580B1D0F81D
:10260C00143213B10023C0F8143209B1C0F81012FF
:10261C000123027080F8FC3100F02AFE002008BD76
:10262C00022008BD19B1C0F8141200207047022016
:10263C00704708B500F05EFE002008BD08B5D0F864
:10264C0014320BB9022008BD1B6898470028F9D139
:10265C0008BD08B5D0F814325B689847002008BD57
:10266C0038B500F502750446284600F064FA0123DB
:10267C0094F80812C4F8F431B4F80E32C4F8F831F6
:10268C0001F01F03012B0ED007D3022B10D001F049
:10269C008001204600F05AFE03E02946204600F057
:1026AC00D5F8002038BD2946204600F0C9F9F8E7D6
:1026BC002946204600F0DCF9F3E738B50446154608
:1026CC0011BBD0F8F431032B0FD1D0F80C31D0F86A
:1026DC00102193420BD99B1A9A4228BF1A46C0F874
:1026EC000C3192B2294600F07AFA002038BDD0F8AD
:1026FC0014321B6923B190F8FC21032A00D19847AE
:10270C00204600F074FAF0E7D0F814329B69002BE5
:10271C00EBD090F8FC21032AE7D19847E5E770B598
:10272C00134604460E4600293DD1D0F8F421022A66
:10273C000FD1C569026A954214D9AA1AC261194609
:10274C0092B200F035FA33461A461946204600F08C
:10275C0045FE94F80032012B02D1002384F800329C
:10276C00002070BD8369B3FBF2F502FB153565B92A
:10277C009A420AD8D0F8F821934206D22A4600F0A1
:10278C0017FAC4F8F8512B46DEE7D4F81432DB689C
:10279C002BB194F8FC21032A01D1204698472046FE
:1027AC0000F030FAD5E7D0F814325B69002BD7D0A3
:1027BC0090F8FC21032AD3D19847D1E7002238B5F1
:1027CC00044640251146402300F0A2FD2B46C4F8D8
:1027DC00105100228021204600F09AFD012384F83C
:1027EC00FC31D4F8183225622BB1D4F8143221798B
:1027FC005B6820469847002038BD01740020704764
:10280C0090F8FC3180F8FD31042380F8FC31002075
:10281C00704790F8FD3180F8FC310020704708B506
:10282C0090F8FC21032A04D1D0F81432DB6903B1EF
:10283C009847002008BD10B50446802100F086FDA5
:10284C002046BDE81040002100F080BD37B54B7824
:10285C0004460D46092B79D8DFE813F0C900E500D2
:10286C007800D90078006D000A007800B9008D005E
:10287C004B881A0A013A062A68D8DFE802F0041CD1
:10288C00296767495200D0F810321B680DF1060118
:10289C00207C9847BDF80620002A67D0EB88002BD7
:1028AC0064D09A4228BF1A460146ADF8062020464D
:1028BC0000F071F95AE0027CD0F8143232B99B6AFC
:1028CC000DF10600984702234370E3E7DB6AF7E754
:1028DC00DBB2052B3AD8DFE803F003070B0F131715
:1028EC00D0F810325B68D1E7D0F810329B68CDE796
:1028FC00D0F81032DB68C9E7D0F810321B69C5E795
:10290C00D0F810325B69C1E7D0F810329B69BDE793
:10291C00037CDBB9D0F814320DF106005B6B9847E1
:10292C00B8E7037C93B9D0F814320DF106001B6B99
:10293C0098470723C8E78B8843B9CB8833B990F8FD
:10294C00FC318D78032B05F07F0503D12046FFF772
:10295C0072FF0BE080F8FE51294600F023FD204663
:10296C0000F045F92DB1022384F8FC31002003B0AE
:10297C0030BD0123F8E78978304D01292970E5D85D
:10298C0090F8FC31022B0CD0032BDFD1B1B9022310
:10299C00416080F8FC31FFF75CFE204600F027F91F
:1029AC00E4E70029F9D001210323416080F8FC31D0
:1029BC002046FFF743FE0228EFD1C7E74168012903
:1029CC00EBD0C9B2FFF745FE29786160F0E7CA8801
:1029DC00012ABBD190F8FC31022B03D0032BB5D1CB
:1029EC00011D64E70146002341F8083F5FE790F8BA
:1029FC00FC31023B012BA9D80123C360D0F804326F
:102A0C000BB10323C360022204F10C014FE74B8886
:102A1C00012BABD1C4F80432D4F8143229469B688C
:102A2C0020469847B9E790F8FC31023B012B8DD832
:102A3C004B88012B9AD10023ECE700BF7D010020CD
:102A4C0038B590F8FC310446032B0D460DD10B79AB
:102A5C00012B0AD8D0F814329B689847EB8813B92D
:102A6C00204600F0C4F8002038BDFFF7E4FEFAE77A
:102A7C0070B50A788E8802F06002202A04460D4652
:102A8C00F3B205D1D0F814329B689847002070BD82
:102A9C004A78012A1CD02AD3032AF7D190F8FC21BA
:102AAC00022A40D0032A02D0FFF7C5FEEEE74A887F
:102ABC0022B95E0602D0194600F048FCD4F8143254
:102ACC0029469B6820469847204600F090F8DDE7A1
:102ADC0090F8FC21022A26D0032AE5D14A88002A44
:102AEC00D4D15906F0D0194600F03EFCE6E790F838
:102AFC00FC21022A17D0032AD6D103F07F0516F049
:102B0C00800F00EB0515194614BF143505F58275B9
:102B1C0000F038FC68B101232B60022229462046C4
:102B2C0000F039F8B2E75A06B0D0194600F00EFCA6
:102B3C00ACE72860F1E70B7803704B784370CA78E8
:102B4C008B7803EB022343804A790B7903EB022346
:102B5C008380CA798B7903EB0223C380704730B52D
:102B6C0088B105462B1A15F8014BDBB2002CF9D1B4
:102B7C005B00023313800B7003234B70022301386C
:102B8C0010F8015F05B930BD5A1CCD54D2B20233D6
:102B9C00DBB28C54F4E71346022210B5C0F8F421D2
:102BAC0083610A46C361002100F00AFC002010BDBD
:102BBC0008B513460A46002100F002FC002008BDAF
:102BCC001346032210B5C0F8F421C0F808310A46A8
:102BDC00C0F80C31002100F001FC002010BD08B53C
:102BEC0013460A46002100F0F9FB002008BD08B589
:102BFC000423C0F8F43100231A46194600F0E0FB18
:102C0C00002008BD08B50523C0F8F43100231A468E
:102C1C00194600F0E3FB002008BD282230B595B022
:102C2C000DEB0200002100F08FFC142200210DEBB3
:102C3C00020000F089FC0021102201A800F084FCA5
:102C4C004FF48033012202250B9312934FF4E013BF
:102C5C000AA80A920E9213931195FEF719F90F23F5
:102C6C00002405934FF48063294605A80893069524
:102C7C0007940994FEF7D4FA122301934FF40043FE
:102C8C0001A803930494FEF77DFB15B030BD000042
:102C9C0080B598B0FDF778FAFFF7BFFF102200213E
:102CAC0011A800F051FC834B00249A6901274FF0C6
:102CBC00020842F010024FF400599A619A694FF4DD
:102CCC00005102F010020092009A9A697A4842F080
:102CDC0020029A619A69794D02F020020192019AC0
:102CEC009A694FF4805642F004029A619A6902F094
:102CFC0004020292029A9A6942F008029A619B6954
:102D0C00002203F008030393039BFDF7CFFC002282
:102D1C004FF470416A48FDF7C9FC11A96648CDF81B
:102D2C00449012971394CDF85080FDF7DFFB4FF4CD
:102D3C00704311A96248119312971394CDF85080E7
:102D4C00FDF7D4FB4FF4FC7311A95D481193129459
:102D5C001394FDF7CBFB1022214606A800F0F4FBE0
:102D6C001C2221460AA80494059400F0EDFB214690
:102D7C001C2211A800F0E8FB4723524A284685E89C
:102D8C000C0040F2E733AC60EB602C616C61AC6121
:102D9C00FEF7FCFD06A928460696FEF740FC2846E1
:102DAC00FEF70EFE04A9284604940594FEF7D6FE01
:102DBC00602304220AA928460A930B940C940D94C0
:102DCC000E940F941094FEF741FE11A9284611940D
:102DDC001294139414941594CDF858901794FEF7FC
:102DEC0097FE284600F040F91022214611A800F069
:102DFC00ABFB4FF0804140F2CF23334D0A9485E872
:102E0C000A0063232846EB600B94AC602C61AC6128
:102E1C00FEF7BCFD11A928461196FEF700FC0AA985
:102E2C0028460A940B94FEF799FE00F081F91422BF
:102E3C00214611A800F088FB244E254B304686E82D
:102E4C0018004FF6FF73B460F3603461B4610A94F8
:102E5C000B94FEF79BFD07231193502312930F2322
:102E6C0011A930461593CDF84C80FEF791FC0AA9B8
:102E7C0030460A94174E0B94FEF770FE164B3046F4
:102E8C0033604FF460231194F36112941394B46083
:102E9C00F460746174603761FDF740FA11A9304633
:102EAC00119412971394FDF793F92846FEF7ABFB98
:102EBC00FEE700BF00100240001001405804002043
:102ECC00000C0140002C014098040020A8030020B5
:102EDC0000040040E8030020002401400368B3F123
:102EEC00804F0ED1074B1A8892B21AB11A88013A48
:102EFC0092B21A805A8892B21AB15A88013A92B296
:102F0C005A807047A40300204FF400510148FDF78C
:102F1C00D2BB00BF00100140704700000E4B82B0C6
:102F2C009A6942F001029A619A6902F001020092D8
:102F3C00009ADA6942F08052DA61DB69074A03F0E1
:102F4C0080530193019B536823F0E06343F00073BB
:102F5C00536002B0704700BF0010024000000140F7
:102F6C0010B5044686B01022002102A800F0ECFA3D
:102F7C002268104B9A421BD103F56C439A6902A943
:102F8C0042F400729A619A690B4802F40072009242
:102F9C00009A9A6942F004029A619B6903F0040357
:102FAC000193019B0123029303230393FDF79EFAE4
:102FBC0006B010BD0024014000080140102210B5DD
:102FCC00044688B00DEB0200002100F0BDFA236826
:102FDC00214A93420BD1214B9A6942F400629A61C7
:102FEC009B6903F400630093009B08B010BDB3F120
:102FFC00804F13D103F50433DA691C2042F001022F
:10300C00DA610022DB69114603F001030193019B95
:10301C00FDF716FA1C20FDF747FAE6E7104A934233
:10302C00E3D10E4B04A9DA690E4842F00202DA61D0
:10303C00DA6902F002020292029A9A6942F00402E0
:10304C009A619B6903F004030393039B402304934D
:10305C00FDF74CFAC9E700BF002C014000100240FC
:10306C00000400400008014010B5044686B0102250
:10307C00002102A800F068FA22680D4B9A4214D184
:10308C0003F564439A6902A942F004029A619B69B0
:10309C00084803F004030193019B4FF4007302935F
:1030AC00022303930593FDF721FA06B010BD00BF70
:1030BC00002C0140000801407047FEE7FEE7FEE7E8
:1030CC00FEE7704770477047FDF770B80148FDF791
:1030DC0003BC00BFCC0E00200148FEF77DBB00BF37
:1030EC00980400200F4B1A6842F001021A605968CC
:1030FC000D4A0A405A601A6822F0847222F4803217
:10310C001A601A6822F480221A605A6822F4FE02AD
:10311C005A604FF41F029A604FF00062034B9A60A2
:10312C00704700BF001002400000FFF800ED00E007
:10313C0010B5094C002209492046FFF75EFA0849F0
:10314C002046FFF76FFA20460649FFF72EFA204675
:10315C00BDE81040FFF76DBAD80400202C01002008
:10316C00080000201C010020002070470020704740
:10317C0010B5064C002206492046FFF71DFA0549FA
:10318C002046FFF721FA002010BD00BFD804002014
:10319C00E40A0020FC06002070B504460E46074DDC
:1031AC0001462846FFF710FA2846FFF713FA204687
:1031BC003168FFF7A9FE002070BD00BFD8040020C5
:1031CC0007B50D4B02689A4212D103F5DA33DA696E
:1031DC00142042F40002DA610022DB69114603F488
:1031EC0000030193019BFDF72BF91420FDF75CF90B
:1031FC0003B05DF804FB00BF005C004000F22C4102
:10320C00D0F85C04FFF72CBA00EB4113D3F83C2246
:10321C00D0F85C04FFF751BA00EB4113DA6BD0F82D
:10322C005C04FFF77CBAD0F85C04FFF7F8BA10B571
:10323C0004460121D0F85C04FFF7DFFAD4F85C04F3
:10324C00BDE81040FFF7BABA10B50446D0F85C04DC
:10325C00FFF7D6FAA36923B1024A136943F00603B8
:10326C00136110BD00ED00E0D0F85C04FFF7D1BA9B
:10327C0010B5022308224FF0030E04461B491C48CC
:10328C0080E80E400023C0F85C44C4F8200283613F
:10329C00C3610362FDF713FA08B1FFF73DFE00228C
:1032AC0018231146D4F82002FDF7DAFD582300222A
:1032BC008021D4F82002FDF7D3FDC0230022812108
:1032CC00D4F82002FDF7CCFD4FF4887300220121C5
:1032DC00D4F82002FDF7C4FD4FF480730022822144
:1032EC00D4F82002FDF7BCFD002010BD005C0040AE
:1032FC00CC0E002008B5D0F82002FDF749FA0328BF
:10330C009ABF024B185C022008BD00BF9C35000818
:10331C0010B51C46D0F8200213462246FDF763FA7E
:10332C0003289ABF014B185C022010BD9C35000885
:10333C0008B5D0F82002FDF779FA03289ABF024BA2
:10334C00185C022008BD00BF9C35000808B5D0F8F9
:10335C002002FDF739FD03289ABF024B185C0220AE
:10336C0008BD00BF9C35000808B5D0F82002FDF759
:10337C0054FD03289ABF024B185C022008BD00BF05
:10338C009C3500080A06D0F8203245BF01F07F01B9
:10339C0003EB411303EB411393F82A0058BF93F846
:1033AC002A02704708B5D0F82002FDF708FA032866
:1033BC009ABF024B185C022008BD00BF9C35000868
:1033CC0008B5D0F82002FDF771FA03289ABF024B1A
:1033DC00185C022008BD00BF9C35000808B5D0F869
:1033EC002002FDF744FA03289ABF024B185C022016
:1033FC0008BD00BF9C35000808B5D0F82002FDF7C9
:10340C004EFA08BD00487047800100207047704795
:10341C00122301480B807047480100200423014807
:10342C000B8070475C01002010B5044C0A46044820
:10343C002146FFF794FB204610BD00BF2C13002043
:10344C00B935000810B5044C0A4604482146FFF76C
:10345C0086FB204610BD00BF2C130020CC35000885
:10346C0010B5044C0A4604482146FFF778FB204669
:10347C0010BD00BF2C130020E235000810B5044C21
:10348C000A4604482146FFF76AFB204610BD00BFE0
:10349C002C130020A035000810B5044C0A46044833
:1034AC002146FFF75CFB204610BD00BF2C1300200B
:1034BC00AB350008002103E00B4B5B584350043143
:1034CC000A480B4B42189A42F6D30A4A02E00023F0
:1034DC0042F8043B084B9A42F9D3FFF703FE00F085
:1034EC000FF8FFF7D5FB7047F835000800000020F7
:1034FC0060010020600100202C150020FEE7000078
:10350C0070B500250C4E0D4CA41BA410A54209D17E
:10351C0000F022F800250A4E0A4CA41BA410A54268
:10352C0005D170BD56F8253098470135EEE756F8B1
:10353C00253098470135F2E7F0350008F0350008E2
:10354C00F0350008F435000803460244934200D1DC
:10355C00704703F8011BF9E7F8B500BFF8BC08BCCD
:10356C009E467047F8B500BFF8BC08BC9E46704735
:10357C0002030405060708090A0B0C0D0E0F1010A8
:10358C000000000000000000010203040607080907
:10359C000002010243444320436F6E666967004397
:1035AC00444320496E746572666163650053544DE3
:1035BC006963726F656C656374726F6E69637300B7
:1035CC0053544D3332205669727475616C20436FBD
:1035DC006D506F72740030303030303030303030ED
:0435EC003141000069
:0435F000310100089D
:0435F4000D010008BD
:1035F80001000000100000002B250008F12400083D
:10360800892400080000000001240008EF230008B6
:10361800592400080000000000000000000000001D
:103628003524000829240008412400084D240008F6
:1036380009024300020100C032090400000102022D
:1036480001000524001001052401000104240202E0
:10365800052406000107058203080010090401007B
:10366800020A000000070501024000000705810268
:103678004000000009024300020100C032090400B2
:1036880000010202010005240010010524010001C7
:10369800042402020524060001070582030800101D
:1036A80009040100020A00000007050102000200E7
:1036B80007058102000200000A060002000000401F
:1036C8000100000009074300020104C03209040098
:1036D8000001020201000524001001052401000177
:1036E800042402020524060001070582030800FFDE
:1036F80009040100020A0000000705010240000059
:10370800070581024000000000A24A047D3100083C
:103718007531000879310008A53100081D3400080A
:103728002934000835340008513400086D34000885
:1037380089340008A5340008120100020202004082
:103748008304405700020102030100000403090436
:04000005080034C1FA
:00000001FF
